{
  "transactions": [
    {
      "hash": "0x1fd95363c12a3593a60bd8473bd1d21c5387da4abd8834a9a89acc33aba486bf",
      "transactionType": "CALL",
      "contractName": null,
      "contractAddress": "0xf3ec3a705d1125d073e117bb2619e7c7c39f5e1e",
      "function": "modifyDid(uint256,string)",
      "arguments": [
        "0",
        "new metadata modify"
      ],
      "transaction": {
        "from": "0x618d64266bfe4ec30c05d26cc906480e21ccbfba",
        "to": "0xf3ec3a705d1125d073e117bb2619e7c7c39f5e1e",
        "gas": "0xbfc5",
        "value": "0x0",
        "input": "0xe78892df0000000000000000000000000000000000000000000000000000000000000000000000000000000000000000000000000000000000000000000000000000004000000000000000000000000000000000000000000000000000000000000000136e6577206d65746164617461206d6f6469667900000000000000000000000000",
        "nonce": "0x2b",
        "chainId": "0x1789"
      },
      "additionalContracts": [],
      "isFixedGasLimit": false
    }
  ],
  "receipts": [
    {
      "status": "0x1",
      "cumulativeGasUsed": "0x13a33",
      "logs": [
        {
          "address": "0xf3ec3a705d1125d073e117bb2619e7c7c39f5e1e",
          "topics": [
            "0xc5d00ebf0cf211312ea3854c8e751dbbcd16591804a72f6739ee735ec33e30f1",
            "0x0000000000000000000000000000000000000000000000000000000000000000"
          ],
          "data": "0x000000000000000000000000000000000000000000000000000000000000002000000000000000000000000000000000000000000000000000000000000000136e6577206d65746164617461206d6f6469667900000000000000000000000000",
          "blockHash": "0x1386b88cdaa8d6b779613edfd3cbdbfb95268ea232dea06e8c8065ebfc0dae16",
          "blockNumber": "0xb0c58",
          "transactionHash": "0x1fd95363c12a3593a60bd8473bd1d21c5387da4abd8834a9a89acc33aba486bf",
          "transactionIndex": "0x1",
          "logIndex": "0x1",
          "removed": false
        }
      ],
      "logsBloom": "0x00000000000000000000000000000000000000000000000000000000000000000000002000000000000000000000000000000000004000000000000000000000000000000000000000000000000000000000000002000000000000000000000000000000020000000000000000000800000000000000000000000000000800000000000000000000000000000000000000000000000000000000000000000000000000000000000000000000000000000000000004040000000000000000000000000000000000000000000000000000000000000000000000000000000020000000000000000000000000000000000000000000000000000000000000000000",
      "type": "0x2",
      "transactionHash": "0x1fd95363c12a3593a60bd8473bd1d21c5387da4abd8834a9a89acc33aba486bf",
      "transactionIndex": "0x1",
      "blockHash": "0x1386b88cdaa8d6b779613edfd3cbdbfb95268ea232dea06e8c8065ebfc0dae16",
      "blockNumber": "0xb0c58",
      "gasUsed": "0x9c27",
      "effectiveGasPrice": "0x1dcd6501",
      "from": "0x618d64266bfe4ec30c05d26cc906480e21ccbfba",
      "to": "0xf3ec3a705d1125d073e117bb2619e7c7c39f5e1e",
      "contractAddress": null
    }
  ],
  "libraries": [],
  "pending": [],
  "returns": {},
  "timestamp": 1740139033,
  "chain": 6025,
  "commit": "deaf769"
}