{
  "transactions": [
    {
      "hash": "0x2dd144e25bc7479c0960e5932a2ed9bb4b31b32e9cf01d4e347cb5f4cf5a5857",
      "transactionType": "CALL",
      "contractName": null,
      "contractAddress": "0x9ca4d7c00838d0dafa2ace3a7636d2a5c3079b7e",
      "function": "createDID(string)",
      "arguments": [
        "https://ipfs.io/ipfs/bafkreigxnhhmoeyg5vjfcrlr4yluostuxuivpehn77i5uzt4uc4e5zdp2i"
      ],
      "transaction": {
        "from": "0x3c9bd9bca767a83a07e5c5e7a0729bbfa537aa5f",
        "to": "0x9ca4d7c00838d0dafa2ace3a7636d2a5c3079b7e",
        "gas": "0x74bbe",
        "value": "0x0",
        "input": "0x3457d3e20000000000000000000000000000000000000000000000000000000000000020000000000000000000000000000000000000000000000000000000000000005068747470733a2f2f697066732e696f2f697066732f6261666b72656967786e68686d6f65796735766a6663726c7234796c756f737475787569767065686e37376935757a743475633465357a6470326900000000000000000000000000000000",
        "nonce": "0x16",
        "chainId": "0x1789"
      },
      "additionalContracts": [],
      "isFixedGasLimit": false
    }
  ],
  "receipts": [
    {
      "status": "0x1",
      "cumulativeGasUsed": "0x6b810",
      "logs": [
        {
          "address": "0x9ca4d7c00838d0dafa2ace3a7636d2a5c3079b7e",
          "topics": [
            "0xddf252ad1be2c89b69c2b068fc378daa952ba7f163c4a11628f55a4df523b3ef",
            "0x0000000000000000000000000000000000000000000000000000000000000000",
            "0x0000000000000000000000003c9bd9bca767a83a07e5c5e7a0729bbfa537aa5f",
            "0x0000000000000000000000000000000000000000000000000000000000000001"
          ],
          "data": "0x",
          "blockHash": "0xda012a7084e509884f64b5d5eba42e0ad9d722dda17b36d93bdeba162e795142",
          "blockNumber": "0xb2d38",
          "transactionHash": "0x2dd144e25bc7479c0960e5932a2ed9bb4b31b32e9cf01d4e347cb5f4cf5a5857",
          "transactionIndex": "0x0",
          "logIndex": "0x0",
          "removed": false
        },
        {
          "address": "0x9ca4d7c00838d0dafa2ace3a7636d2a5c3079b7e",
          "topics": [
            "0xf8e1a15aba9398e019f0b49df1a4fde98ee17ae345cb5f6b5e2c27f5033e8ce7"
          ],
          "data": "0x0000000000000000000000000000000000000000000000000000000000000001",
          "blockHash": "0xda012a7084e509884f64b5d5eba42e0ad9d722dda17b36d93bdeba162e795142",
          "blockNumber": "0xb2d38",
          "transactionHash": "0x2dd144e25bc7479c0960e5932a2ed9bb4b31b32e9cf01d4e347cb5f4cf5a5857",
          "transactionIndex": "0x0",
          "logIndex": "0x1",
          "removed": false
        },
        {
          "address": "0x9ca4d7c00838d0dafa2ace3a7636d2a5c3079b7e",
          "topics": [
            "0x035e0e44205841e243b41143f53ad954802527c576355f00bf30971bb9fa77ab",
            "0x0000000000000000000000000000000000000000000000000000000000000001",
            "0x0000000000000000000000003c9bd9bca767a83a07e5c5e7a0729bbfa537aa5f"
          ],
          "data": "0x000000000000000000000000000000000000000000000000000000000000002000000000000000000000000000000000000000000000000000000000000000d17b226e616d65223a20224d616e64616c612041636164656d79204e4654202331222c20226465736372697074696f6e223a202241206365727469666963617465204e465420746861742073747564656e7420616c726561647920636f6d706c657465642074686520636f75727365222c2022696d6167655f75726c223a202268747470733a2f2f697066732e696f2f697066732f6261666b72656967786e68686d6f65796735766a6663726c7234796c756f737475787569767065686e37376935757a743475633465357a64703269227d000000000000000000000000000000",
          "blockHash": "0xda012a7084e509884f64b5d5eba42e0ad9d722dda17b36d93bdeba162e795142",
          "blockNumber": "0xb2d38",
          "transactionHash": "0x2dd144e25bc7479c0960e5932a2ed9bb4b31b32e9cf01d4e347cb5f4cf5a5857",
          "transactionIndex": "0x0",
          "logIndex": "0x2",
          "removed": false
        }
      ],
      "logsBloom": "0x00000000000000000000000000000000000000000000000000000000000000000010000000000000200000000000000000000000000000000000000000040000000000000000000000000008000000000000000000040000000000000000000000000000020000000000000000000800000000000000100000000010000000000000000000000000000000000000100000000000000000000000000000000000000000000000000000000000000000002000000000000000000000000000008000000002000000000000000000000000000000000000000000000000000060000000000020000000201100000000000000000000000000000100400000000000",
      "type": "0x2",
      "transactionHash": "0x2dd144e25bc7479c0960e5932a2ed9bb4b31b32e9cf01d4e347cb5f4cf5a5857",
      "transactionIndex": "0x0",
      "blockHash": "0xda012a7084e509884f64b5d5eba42e0ad9d722dda17b36d93bdeba162e795142",
      "blockNumber": "0xb2d38",
      "gasUsed": "0x6b810",
      "effectiveGasPrice": "0x1dcd6501",
      "from": "0x3c9bd9bca767a83a07e5c5e7a0729bbfa537aa5f",
      "to": "0x9ca4d7c00838d0dafa2ace3a7636d2a5c3079b7e",
      "contractAddress": null
    }
  ],
  "libraries": [],
  "pending": [],
  "returns": {},
  "timestamp": 1740196496,
  "chain": 6025,
  "commit": "e5349ad"
}