{
  "transactions": [
    {
      "hash": "0xbe486e19171a3e565f1630832543a477475de4e3efb1d7e6e628195a097cd5c9",
      "transactionType": "CALL",
      "contractName": null,
      "contractAddress": "0xbf43a789875f2d63036e8c00cbd580feeaeb9b8a",
      "function": "createDID(string)",
      "arguments": [
        "https://ipfs.io/ipfs/bafkreigxnhhmoeyg5vjfcrlr4yluostuxuivpehn77i5uzt4uc4e5zdp2i"
      ],
      "transaction": {
        "from": "0x3c9bd9bca767a83a07e5c5e7a0729bbfa537aa5f",
        "to": "0xbf43a789875f2d63036e8c00cbd580feeaeb9b8a",
        "gas": "0x86686",
        "value": "0x0",
        "input": "0x3457d3e20000000000000000000000000000000000000000000000000000000000000020000000000000000000000000000000000000000000000000000000000000005068747470733a2f2f697066732e696f2f697066732f6261666b72656967786e68686d6f65796735766a6663726c7234796c756f737475787569767065686e37376935757a743475633465357a6470326900000000000000000000000000000000",
        "nonce": "0x1a",
        "chainId": "0x1789"
      },
      "additionalContracts": [],
      "isFixedGasLimit": false
    }
  ],
  "receipts": [
    {
      "status": "0x1",
      "cumulativeGasUsed": "0x73c60",
      "logs": [
        {
          "address": "0xbf43a789875f2d63036e8c00cbd580feeaeb9b8a",
          "topics": [
            "0xddf252ad1be2c89b69c2b068fc378daa952ba7f163c4a11628f55a4df523b3ef",
            "0x0000000000000000000000000000000000000000000000000000000000000000",
            "0x0000000000000000000000003c9bd9bca767a83a07e5c5e7a0729bbfa537aa5f",
            "0x0000000000000000000000000000000000000000000000000000000000000002"
          ],
          "data": "0x",
          "blockHash": "0x3bed8ed04bac6ae17043805f59de55e282dc8d55bf13fd445ad964433f6da4cd",
          "blockNumber": "0xb2d8a",
          "transactionHash": "0xbe486e19171a3e565f1630832543a477475de4e3efb1d7e6e628195a097cd5c9",
          "transactionIndex": "0x0",
          "logIndex": "0x0",
          "removed": false
        },
        {
          "address": "0xbf43a789875f2d63036e8c00cbd580feeaeb9b8a",
          "topics": [
            "0xf8e1a15aba9398e019f0b49df1a4fde98ee17ae345cb5f6b5e2c27f5033e8ce7"
          ],
          "data": "0x0000000000000000000000000000000000000000000000000000000000000002",
          "blockHash": "0x3bed8ed04bac6ae17043805f59de55e282dc8d55bf13fd445ad964433f6da4cd",
          "blockNumber": "0xb2d8a",
          "transactionHash": "0xbe486e19171a3e565f1630832543a477475de4e3efb1d7e6e628195a097cd5c9",
          "transactionIndex": "0x0",
          "logIndex": "0x1",
          "removed": false
        },
        {
          "address": "0xbf43a789875f2d63036e8c00cbd580feeaeb9b8a",
          "topics": [
            "0x035e0e44205841e243b41143f53ad954802527c576355f00bf30971bb9fa77ab",
            "0x0000000000000000000000000000000000000000000000000000000000000002",
            "0x0000000000000000000000003c9bd9bca767a83a07e5c5e7a0729bbfa537aa5f"
          ],
          "data": "0x000000000000000000000000000000000000000000000000000000000000002000000000000000000000000000000000000000000000000000000000000000f17b226e616d65223a20224d616e64616c612041636164656d79204e4654202331222c20226465736372697074696f6e223a202241206365727469666963617465204e465420746861742073747564656e7420616c726561647920636f6d706c657465642074686520636f75727365222c2022696d6167655f75726c223a202268747470733a2f2f697066732e696f2f697066732f6261666b72656967786e68686d6f65796735766a6663726c7234796c756f737475787569767065686e37376935757a743475633465357a647032690000000000000000000000000000000000000000000000000000000000000002227d000000000000000000000000000000",
          "blockHash": "0x3bed8ed04bac6ae17043805f59de55e282dc8d55bf13fd445ad964433f6da4cd",
          "blockNumber": "0xb2d8a",
          "transactionHash": "0xbe486e19171a3e565f1630832543a477475de4e3efb1d7e6e628195a097cd5c9",
          "transactionIndex": "0x0",
          "logIndex": "0x2",
          "removed": false
        }
      ],
      "logsBloom": "0x04000000000000000000000000000000000000000000000000000000000000000000000000000000200000000000000000000000000000000000000000000000000000000000000000000008000000000000000000000000000000000000000000000000020000000000000000000800000000000000100000000010000000000000000000000000000000000000100000000000000000000000000000000000000000000000000000000100000000002000000000000000000000000008008000000002000000008000000000000000000000000000000000000000000020000000000020000000301000000000000000000000008000000100000000000000",
      "type": "0x2",
      "transactionHash": "0xbe486e19171a3e565f1630832543a477475de4e3efb1d7e6e628195a097cd5c9",
      "transactionIndex": "0x0",
      "blockHash": "0x3bed8ed04bac6ae17043805f59de55e282dc8d55bf13fd445ad964433f6da4cd",
      "blockNumber": "0xb2d8a",
      "gasUsed": "0x73c60",
      "effectiveGasPrice": "0x1dcd6501",
      "from": "0x3c9bd9bca767a83a07e5c5e7a0729bbfa537aa5f",
      "to": "0xbf43a789875f2d63036e8c00cbd580feeaeb9b8a",
      "contractAddress": null
    }
  ],
  "libraries": [],
  "pending": [],
  "returns": {},
  "timestamp": 1740197114,
  "chain": 6025,
  "commit": "e5349ad"
}