{
  "transactions": [
    {
      "hash": "0xbdca42b7dee5371c0e9fc62b684257b06d54fd32282a7aee0e42e2dfd660cf0a",
      "transactionType": "CALL",
      "contractName": null,
      "contractAddress": "0x107623e08e830b3cf6c8147d4acccb58673acd8d",
      "function": "createDID(string)",
      "arguments": [
        "https://ipfs.io/ipfs/bafkreigxnhhmoeyg5vjfcrlr4yluostuxuivpehn77i5uzt4uc4e5zdp2i"
      ],
      "transaction": {
        "from": "0x3c9bd9bca767a83a07e5c5e7a0729bbfa537aa5f",
        "to": "0x107623e08e830b3cf6c8147d4acccb58673acd8d",
        "gas": "0x7ad4a",
        "value": "0x0",
        "input": "0x3457d3e20000000000000000000000000000000000000000000000000000000000000020000000000000000000000000000000000000000000000000000000000000005068747470733a2f2f697066732e696f2f697066732f6261666b72656967786e68686d6f65796735766a6663726c7234796c756f737475787569767065686e37376935757a743475633465357a6470326900000000000000000000000000000000",
        "nonce": "0x28",
        "chainId": "0x1789"
      },
      "additionalContracts": [],
      "isFixedGasLimit": false
    }
  ],
  "receipts": [
    {
      "status": "0x1",
      "cumulativeGasUsed": "0x73c60",
      "logs": [
        {
          "address": "0x107623e08e830b3cf6c8147d4acccb58673acd8d",
          "topics": [
            "0xddf252ad1be2c89b69c2b068fc378daa952ba7f163c4a11628f55a4df523b3ef",
            "0x0000000000000000000000000000000000000000000000000000000000000000",
            "0x0000000000000000000000003c9bd9bca767a83a07e5c5e7a0729bbfa537aa5f",
            "0x0000000000000000000000000000000000000000000000000000000000000000"
          ],
          "data": "0x",
          "blockHash": "0x8507e38b72029ed5b3a21a64445fffcd89be57d9f4a5dfd0ef5c26f00fcf1eb1",
          "blockNumber": "0xb2e93",
          "transactionHash": "0xbdca42b7dee5371c0e9fc62b684257b06d54fd32282a7aee0e42e2dfd660cf0a",
          "transactionIndex": "0x0",
          "logIndex": "0x0",
          "removed": false
        },
        {
          "address": "0x107623e08e830b3cf6c8147d4acccb58673acd8d",
          "topics": [
            "0xf8e1a15aba9398e019f0b49df1a4fde98ee17ae345cb5f6b5e2c27f5033e8ce7"
          ],
          "data": "0x0000000000000000000000000000000000000000000000000000000000000000",
          "blockHash": "0x8507e38b72029ed5b3a21a64445fffcd89be57d9f4a5dfd0ef5c26f00fcf1eb1",
          "blockNumber": "0xb2e93",
          "transactionHash": "0xbdca42b7dee5371c0e9fc62b684257b06d54fd32282a7aee0e42e2dfd660cf0a",
          "transactionIndex": "0x0",
          "logIndex": "0x1",
          "removed": false
        },
        {
          "address": "0x107623e08e830b3cf6c8147d4acccb58673acd8d",
          "topics": [
            "0x75d066623cb36b56227bccf5c426f5e7f71ad6f4af2503df3c6971b811a38f17",
            "0x0000000000000000000000003c9bd9bca767a83a07e5c5e7a0729bbfa537aa5f",
            "0x0000000000000000000000000000000000000000000000000000000000000000"
          ],
          "data": "0x00000000000000000000000000000000000000000000000000000000000000200000000000000000000000000000000000000000000000000000000000000135646174613a6170706c69636174696f6e2f6a736f6e3b6261736536342c65794a755957316c496a6f67496b3168626d52686247456751574e685a4756746553424f526c5167497a45694c4341695a47567a59334a7063485270623234694f6941695153426a5a584a3061575a70593246305a53424f526c5167644768686443427a6448566b5a57353049474673636d56685a486b67593239746347786c6447566b4948526f5a53426a62335679633255694c434169615731685a32566664584a73496a6f67496d68306448427a4f6938766158426d637935706279397063475a7a4c324a685a6d74795a576c6e6547356f614731765a586c6e4e585a715a6d4e79624849306557783162334e306458683161585a775a5768754e7a64704e58563664445231597a526c4e58706b63444a70496e303d0000000000000000000000",
          "blockHash": "0x8507e38b72029ed5b3a21a64445fffcd89be57d9f4a5dfd0ef5c26f00fcf1eb1",
          "blockNumber": "0xb2e93",
          "transactionHash": "0xbdca42b7dee5371c0e9fc62b684257b06d54fd32282a7aee0e42e2dfd660cf0a",
          "transactionIndex": "0x0",
          "logIndex": "0x2",
          "removed": false
        }
      ],
      "logsBloom": "0x00000000000000000000000000000000000000000000000000000000000000000000010000000000000000000000000000000080000000000000000000000000000000000000000002000008000040000000000000000000000000000000000000000000020000000000000000000800000000000000000000000010000000000000000000000000000000002000000040000000000000000000000000000000000000000000000000000000000000002000000000000000000000000000008000000002000000000000000000000000000000000000000000000000000020000000000020000000201000000000000000000000000000000100000000000000",
      "type": "0x2",
      "transactionHash": "0xbdca42b7dee5371c0e9fc62b684257b06d54fd32282a7aee0e42e2dfd660cf0a",
      "transactionIndex": "0x0",
      "blockHash": "0x8507e38b72029ed5b3a21a64445fffcd89be57d9f4a5dfd0ef5c26f00fcf1eb1",
      "blockNumber": "0xb2e93",
      "gasUsed": "0x73c60",
      "effectiveGasPrice": "0x1dcd6501",
      "from": "0x3c9bd9bca767a83a07e5c5e7a0729bbfa537aa5f",
      "to": "0x107623e08e830b3cf6c8147d4acccb58673acd8d",
      "contractAddress": null
    }
  ],
  "libraries": [],
  "pending": [],
  "returns": {},
  "timestamp": 1740198841,
  "chain": 6025,
  "commit": "e5349ad"
}