{
  "transactions": [
    {
      "hash": null,
      "transactionType": "CALL",
      "contractName": null,
      "contractAddress": "0x5345aa8d7d08c8d2b4d72c5e55be47adf4c22ac4",
      "function": "createDID(string)",
      "arguments": [
        "https://ipfs.io/ipfs/bafkreigxnhhmoeyg5vjfcrlr4yluostuxuivpehn77i5uzt4uc4e5zdp2i"
      ],
      "transaction": {
        "from": "0x3c9bd9bca767a83a07e5c5e7a0729bbfa537aa5f",
        "to": "0x5345aa8d7d08c8d2b4d72c5e55be47adf4c22ac4",
        "gas": "0x7ad4a",
        "value": "0x0",
        "input": "0x3457d3e20000000000000000000000000000000000000000000000000000000000000020000000000000000000000000000000000000000000000000000000000000005068747470733a2f2f697066732e696f2f697066732f6261666b72656967786e68686d6f65796735766a6663726c7234796c756f737475787569767065686e37376935757a743475633465357a6470326900000000000000000000000000000000",
        "nonce": "0x20",
        "chainId": "0x1789"
      },
      "additionalContracts": [],
      "isFixedGasLimit": false
    }
  ],
  "receipts": [],
  "libraries": [],
  "pending": [],
  "returns": {},
  "timestamp": 1740198304,
  "chain": 6025,
  "commit": "e5349ad"
}